{
  "contractName": "ZombieAttack",
  "abi": [
    {
      "anonymous": false,
      "inputs": [
        {
          "indexed": false,
          "internalType": "uint256",
          "name": "zombieId",
          "type": "uint256"
        },
        {
          "indexed": false,
          "internalType": "string",
          "name": "name",
          "type": "string"
        },
        {
          "indexed": false,
          "internalType": "uint256",
          "name": "dna",
          "type": "uint256"
        }
      ],
      "name": "NewZombie",
      "type": "event"
    },
    {
      "anonymous": false,
      "inputs": [
        {
          "indexed": true,
          "internalType": "address",
          "name": "previousOwner",
          "type": "address"
        },
        {
          "indexed": true,
          "internalType": "address",
          "name": "newOwner",
          "type": "address"
        }
      ],
      "name": "OwnershipTransferred",
      "type": "event"
    },
    {
      "constant": false,
      "inputs": [
        {
          "internalType": "uint256",
          "name": "_zombieId",
          "type": "uint256"
        },
        {
          "internalType": "uint256",
          "name": "_newDna",
          "type": "uint256"
        }
      ],
      "name": "changeDna",
      "outputs": [],
      "payable": false,
      "stateMutability": "nonpayable",
      "type": "function"
    },
    {
      "constant": false,
      "inputs": [
        {
          "internalType": "uint256",
          "name": "_zombieId",
          "type": "uint256"
        },
        {
          "internalType": "string",
          "name": "_newName",
          "type": "string"
        }
      ],
      "name": "changeName",
      "outputs": [],
      "payable": false,
      "stateMutability": "nonpayable",
      "type": "function"
    },
    {
      "constant": false,
      "inputs": [
        {
          "internalType": "string",
          "name": "_name",
          "type": "string"
        }
      ],
      "name": "createRandomZombie",
      "outputs": [],
      "payable": false,
      "stateMutability": "nonpayable",
      "type": "function"
    },
    {
      "constant": false,
      "inputs": [
        {
          "internalType": "uint256",
          "name": "_zombieId",
          "type": "uint256"
        },
        {
          "internalType": "uint256",
          "name": "_kittyId",
          "type": "uint256"
        }
      ],
      "name": "feedOnKitty",
      "outputs": [],
      "payable": false,
      "stateMutability": "nonpayable",
      "type": "function"
    },
    {
      "constant": true,
      "inputs": [
        {
          "internalType": "address",
          "name": "_owner",
          "type": "address"
        }
      ],
      "name": "getZombiesByOwner",
      "outputs": [
        {
          "internalType": "uint256[]",
          "name": "",
          "type": "uint256[]"
        }
      ],
      "payable": false,
      "stateMutability": "view",
      "type": "function"
    },
    {
      "constant": true,
      "inputs": [],
      "name": "isOwner",
      "outputs": [
        {
          "internalType": "bool",
          "name": "",
          "type": "bool"
        }
      ],
      "payable": false,
      "stateMutability": "view",
      "type": "function"
    },
    {
      "constant": false,
      "inputs": [
        {
          "internalType": "uint256",
          "name": "_zombieId",
          "type": "uint256"
        }
      ],
      "name": "levelUp",
      "outputs": [],
      "payable": true,
      "stateMutability": "payable",
      "type": "function"
    },
    {
      "constant": true,
      "inputs": [],
      "name": "levelUpFee",
      "outputs": [
        {
          "internalType": "uint256",
          "name": "",
          "type": "uint256"
        }
      ],
      "payable": false,
      "stateMutability": "view",
      "type": "function"
    },
    {
      "constant": true,
      "inputs": [],
      "name": "owner",
      "outputs": [
        {
          "internalType": "address",
          "name": "",
          "type": "address"
        }
      ],
      "payable": false,
      "stateMutability": "view",
      "type": "function"
    },
    {
      "constant": false,
      "inputs": [],
      "name": "renounceOwnership",
      "outputs": [],
      "payable": false,
      "stateMutability": "nonpayable",
      "type": "function"
    },
    {
      "constant": false,
      "inputs": [
        {
          "internalType": "address",
          "name": "_address",
          "type": "address"
        }
      ],
      "name": "setKittyContractAddress",
      "outputs": [],
      "payable": false,
      "stateMutability": "nonpayable",
      "type": "function"
    },
    {
      "constant": false,
      "inputs": [
        {
          "internalType": "uint256",
          "name": "_fee",
          "type": "uint256"
        }
      ],
      "name": "setLevelUpFee",
      "outputs": [],
      "payable": false,
      "stateMutability": "nonpayable",
      "type": "function"
    },
    {
      "constant": false,
      "inputs": [
        {
          "internalType": "address",
          "name": "newOwner",
          "type": "address"
        }
      ],
      "name": "transferOwnership",
      "outputs": [],
      "payable": false,
      "stateMutability": "nonpayable",
      "type": "function"
    },
    {
      "constant": false,
      "inputs": [],
      "name": "withdraw",
      "outputs": [],
      "payable": false,
      "stateMutability": "nonpayable",
      "type": "function"
    },
    {
      "constant": true,
      "inputs": [
        {
          "internalType": "uint256",
          "name": "",
          "type": "uint256"
        }
      ],
      "name": "zombieToOwner",
      "outputs": [
        {
          "internalType": "address",
          "name": "",
          "type": "address"
        }
      ],
      "payable": false,
      "stateMutability": "view",
      "type": "function"
    },
    {
      "constant": true,
      "inputs": [
        {
          "internalType": "uint256",
          "name": "",
          "type": "uint256"
        }
      ],
      "name": "zombies",
      "outputs": [
        {
          "internalType": "string",
          "name": "name",
          "type": "string"
        },
        {
          "internalType": "uint256",
          "name": "dna",
          "type": "uint256"
        },
        {
          "internalType": "uint32",
          "name": "level",
          "type": "uint32"
        },
        {
          "internalType": "uint32",
          "name": "readyTime",
          "type": "uint32"
        },
        {
          "internalType": "uint16",
          "name": "winCount",
          "type": "uint16"
        },
        {
          "internalType": "uint16",
          "name": "lossCount",
          "type": "uint16"
        }
      ],
      "payable": false,
      "stateMutability": "view",
      "type": "function"
    },
    {
      "constant": false,
      "inputs": [
        {
          "internalType": "uint256",
          "name": "_probability",
          "type": "uint256"
        }
      ],
      "name": "setAttackVictoryProbability",
      "outputs": [],
      "payable": false,
      "stateMutability": "nonpayable",
      "type": "function"
    },
    {
      "constant": false,
      "inputs": [
        {
          "internalType": "uint256",
          "name": "_zombieId",
          "type": "uint256"
        },
        {
          "internalType": "uint256",
          "name": "_targetId",
          "type": "uint256"
        }
      ],
      "name": "attack",
      "outputs": [],
      "payable": false,
      "stateMutability": "nonpayable",
      "type": "function"
    }
  ],
  "bytecode": "0x60806040526010600155600154600a0a6002556201518060035566038d7ea4c6800060085560006009556046600a55336000806101000a81548173ffffffffffffffffffffffffffffffffffffffff021916908373ffffffffffffffffffffffffffffffffffffffff1602179055506000809054906101000a900473ffffffffffffffffffffffffffffffffffffffff1673ffffffffffffffffffffffffffffffffffffffff16600073ffffffffffffffffffffffffffffffffffffffff167f8be0079c531659141344cd1fd0a4f28419497f9722a3daafe3b4186f6b6457e060405160405180910390a3611c15806100f96000396000f3fe6080604052600436106101095760003560e01c8063715018a611610095578063c39cbef111610064578063c39cbef1146105ee578063c4114b121461067e578063ccf670f8146106a9578063e1fa7638146106e4578063f2fde38b1461072957610109565b8063715018a6146104895780637bff0a01146104a05780638da5cb5b146105685780638f32d59b146105bf57610109565b80634412e104116100dc5780634412e10414610297578063528b7b8f1461033d578063594455f9146103b85780635f4623f1146103f35780635faf28801461044457610109565b80630ce90ec21461010e57806317a7f4cc1461013c5780632052465e146101815780633ccfd60b14610280575b600080fd5b61013a6004803603602081101561012457600080fd5b810190808035906020019092919050505061077a565b005b34801561014857600080fd5b5061017f6004803603604081101561015f57600080fd5b81019080803590602001909291908035906020019092919050505061080f565b005b34801561018d57600080fd5b506101ba600480360360208110156101a457600080fd5b810190808035906020019092919050505061099a565b60405180806020018781526020018663ffffffff1663ffffffff1681526020018563ffffffff1663ffffffff1681526020018461ffff1661ffff1681526020018361ffff1661ffff168152602001828103825288818151815260200191508051906020019080838360005b83811015610240578082015181840152602081019050610225565b50505050905090810190601f16801561026d5780820380516001836020036101000a031916815260200191505b5097505050505050505060405180910390f35b34801561028c57600080fd5b50610295610ab7565b005b3480156102a357600080fd5b506102e6600480360360208110156102ba57600080fd5b81019080803573ffffffffffffffffffffffffffffffffffffffff169060200190929190505050610b1e565b6040518080602001828103825283818151815260200191508051906020019060200280838360005b8381101561032957808201518184015260208101905061030e565b505050509050019250505060405180910390f35b34801561034957600080fd5b506103766004803603602081101561036057600080fd5b8101908080359060200190929190505050610c4b565b604051808273ffffffffffffffffffffffffffffffffffffffff1673ffffffffffffffffffffffffffffffffffffffff16815260200191505060405180910390f35b3480156103c457600080fd5b506103f1600480360360208110156103db57600080fd5b8101908080359060200190929190505050610c7e565b005b3480156103ff57600080fd5b506104426004803603602081101561041657600080fd5b81019080803573ffffffffffffffffffffffffffffffffffffffff169060200190929190505050610c99565b005b34801561045057600080fd5b506104876004803603604081101561046757600080fd5b810190808035906020019092919080359060200190929190505050610cee565b005b34801561049557600080fd5b5061049e610dc8565b005b3480156104ac57600080fd5b50610566600480360360208110156104c357600080fd5b81019080803590602001906401000000008111156104e057600080fd5b8201836020820111156104f257600080fd5b8035906020019184600183028401116401000000008311171561051457600080fd5b91908080601f016020809104026020016040519081016040528093929190818152602001838380828437600081840152601f19601f820116905080830192505050505050509192919290505050610e98565b005b34801561057457600080fd5b5061057d610eff565b604051808273ffffffffffffffffffffffffffffffffffffffff1673ffffffffffffffffffffffffffffffffffffffff16815260200191505060405180910390f35b3480156105cb57600080fd5b506105d4610f28565b604051808215151515815260200191505060405180910390f35b3480156105fa57600080fd5b5061067c6004803603604081101561061157600080fd5b81019080803590602001909291908035906020019064010000000081111561063857600080fd5b82018360208201111561064a57600080fd5b8035906020019184600183028401116401000000008311171561066c57600080fd5b9091929391929390505050610f7f565b005b34801561068a57600080fd5b50610693611065565b6040518082815260200191505060405180910390f35b3480156106b557600080fd5b506106e2600480360360208110156106cc57600080fd5b810190808035906020019092919050505061106b565b005b3480156106f057600080fd5b506107276004803603604081101561070757600080fd5b810190808035906020019092919080359060200190929190505050611086565b005b34801561073557600080fd5b506107786004803603602081101561074c57600080fd5b81019080803573ffffffffffffffffffffffffffffffffffffffff169060200190929190505050611312565b005b600854341461078857600080fd5b6107d060016004838154811061079a57fe5b906000526020600020906003020160020160009054906101000a900463ffffffff1663ffffffff1661132f90919063ffffffff16565b600482815481106107dd57fe5b906000526020600020906003020160020160006101000a81548163ffffffff021916908363ffffffff16021790555050565b6000600760009054906101000a900473ffffffffffffffffffffffffffffffffffffffff1673ffffffffffffffffffffffffffffffffffffffff1663e98b7f4d836040518263ffffffff1660e01b8152600401808281526020019150506101406040518083038186803b15801561088557600080fd5b505afa158015610899573d6000803e3d6000fd5b505050506040513d6101408110156108b057600080fd5b81019080805190602001909291908051906020019092919080519060200190929190805190602001909291908051906020019092919080519060200190929190805190602001909291908051906020019092919080519060200190929190805190602001909291905050509091929394959697985090919293949596975090919293949596509091929394955090919293945090919293509091925090915090508091505061099583826040518060400160405280600581526020017f6b69747479000000000000000000000000000000000000000000000000000000815250611357565b505050565b600481815481106109a757fe5b9060005260206000209060030201600091509050806000018054600181600116156101000203166002900480601f016020809104026020016040519081016040528092919081815260200182805460018160011615610100020316600290048015610a535780601f10610a2857610100808354040283529160200191610a53565b820191906000526020600020905b815481529060010190602001808311610a3657829003601f168201915b5050505050908060010154908060020160009054906101000a900463ffffffff16908060020160049054906101000a900463ffffffff16908060020160089054906101000a900461ffff169080600201600a9054906101000a900461ffff16905086565b610abf610f28565b610ac857600080fd5b6000610ad2610eff565b90508073ffffffffffffffffffffffffffffffffffffffff166108fc479081150290604051600060405180830381858888f19350505050158015610b1a573d6000803e3d6000fd5b5050565b606080600660008473ffffffffffffffffffffffffffffffffffffffff1673ffffffffffffffffffffffffffffffffffffffff16815260200190815260200160002054604051908082528060200260200182016040528015610b8f5781602001602082028038833980820191505090505b509050600080905060008090505b600480549050811015610c40578473ffffffffffffffffffffffffffffffffffffffff166005600083815260200190815260200160002060009054906101000a900473ffffffffffffffffffffffffffffffffffffffff1673ffffffffffffffffffffffffffffffffffffffff161415610c335780838381518110610c1e57fe5b60200260200101818152505081806001019250505b8080600101915050610b9d565b508192505050919050565b60056020528060005260406000206000915054906101000a900473ffffffffffffffffffffffffffffffffffffffff1681565b610c86610f28565b610c8f57600080fd5b80600a8190555050565b610ca1610f28565b610caa57600080fd5b80600760006101000a81548173ffffffffffffffffffffffffffffffffffffffff021916908373ffffffffffffffffffffffffffffffffffffffff16021790555050565b6014828160048281548110610cff57fe5b906000526020600020906003020160020160009054906101000a900463ffffffff1663ffffffff161015610d3257600080fd5b836005600082815260200190815260200160002060009054906101000a900473ffffffffffffffffffffffffffffffffffffffff1673ffffffffffffffffffffffffffffffffffffffff163373ffffffffffffffffffffffffffffffffffffffff1614610d9e57600080fd5b8360048681548110610dac57fe5b9060005260206000209060030201600101819055505050505050565b610dd0610f28565b610dd957600080fd5b600073ffffffffffffffffffffffffffffffffffffffff166000809054906101000a900473ffffffffffffffffffffffffffffffffffffffff1673ffffffffffffffffffffffffffffffffffffffff167f8be0079c531659141344cd1fd0a4f28419497f9722a3daafe3b4186f6b6457e060405160405180910390a360008060006101000a81548173ffffffffffffffffffffffffffffffffffffffff021916908373ffffffffffffffffffffffffffffffffffffffff160217905550565b6000600660003373ffffffffffffffffffffffffffffffffffffffff1673ffffffffffffffffffffffffffffffffffffffff1681526020019081526020016000205414610ee457600080fd5b6000610eef82611539565b9050610efb82826115c7565b5050565b60008060009054906101000a900473ffffffffffffffffffffffffffffffffffffffff16905090565b60008060009054906101000a900473ffffffffffffffffffffffffffffffffffffffff1673ffffffffffffffffffffffffffffffffffffffff163373ffffffffffffffffffffffffffffffffffffffff1614905090565b6002838160048281548110610f9057fe5b906000526020600020906003020160020160009054906101000a900463ffffffff1663ffffffff161015610fc357600080fd5b846005600082815260200190815260200160002060009054906101000a900473ffffffffffffffffffffffffffffffffffffffff1673ffffffffffffffffffffffffffffffffffffffff163373ffffffffffffffffffffffffffffffffffffffff161461102f57600080fd5b84846004888154811061103e57fe5b9060005260206000209060030201600001919061105c929190611abb565b50505050505050565b60085481565b611073610f28565b61107c57600080fd5b8060088190555050565b816005600082815260200190815260200160002060009054906101000a900473ffffffffffffffffffffffffffffffffffffffff1673ffffffffffffffffffffffffffffffffffffffff163373ffffffffffffffffffffffffffffffffffffffff16146110f257600080fd5b60006004848154811061110157fe5b9060005260206000209060030201905060006004848154811061112057fe5b90600052602060002090600302019050600061113c6064611899565b9050600a5481116112705761117160018460020160089054906101000a900461ffff1661ffff1661193290919063ffffffff16565b8360020160086101000a81548161ffff021916908361ffff1602179055506111bd60018460020160009054906101000a900463ffffffff1663ffffffff1661132f90919063ffffffff16565b8360020160006101000a81548163ffffffff021916908363ffffffff160217905550611209600183600201600a9054906101000a900461ffff1661ffff1661193290919063ffffffff16565b82600201600a6101000a81548161ffff021916908361ffff16021790555061126b8683600101546040518060400160405280600681526020017f7a6f6d6269650000000000000000000000000000000000000000000000000000815250611357565b61130a565b61129a600184600201600a9054906101000a900461ffff1661ffff1661193290919063ffffffff16565b83600201600a6101000a81548161ffff021916908361ffff1602179055506112e260018360020160089054906101000a900461ffff1661ffff1661193290919063ffffffff16565b8260020160086101000a81548161ffff021916908361ffff16021790555061130983611956565b5b505050505050565b61131a610f28565b61132357600080fd5b61132c81611980565b50565b60008082840190508363ffffffff168163ffffffff16101561134d57fe5b8091505092915050565b826005600082815260200190815260200160002060009054906101000a900473ffffffffffffffffffffffffffffffffffffffff1673ffffffffffffffffffffffffffffffffffffffff163373ffffffffffffffffffffffffffffffffffffffff16146113c357600080fd5b6000600485815481106113d257fe5b906000526020600020906003020190506113eb81611a78565b6113f457600080fd5b60025484816113ff57fe5b06935060006002858360010154018161141457fe5b04905060405160200180807f6b69747479000000000000000000000000000000000000000000000000000000815250600501905060405160208183030381529060405280519060200120846040516020018082805190602001908083835b602083106114955780518252602082019150602081019050602083039250611472565b6001836020036101000a0380198251168184511680821785525050505050509050019150506040516020818303038152906040528051906020012014156114e9576063606482816114e257fe5b0682030190505b6115286040518060400160405280600681526020017f4e6f4e616d650000000000000000000000000000000000000000000000000000815250826115c7565b61153182611956565b505050505050565b600080826040516020018082805190602001908083835b602083106115735780518252602082019150602081019050602083039250611550565b6001836020036101000a0380198251168184511680821785525050505050509050019150506040516020818303038152906040528051906020012060001c905060025481816115be57fe5b06915050919050565b6000600160046040518060c00160405280868152602001858152602001600163ffffffff168152602001600354420163ffffffff168152602001600061ffff168152602001600061ffff1681525090806001815401808255809150509060018203906000526020600020906003020160009091929091909150600082015181600001908051906020019061165c929190611b3b565b506020820151816001015560408201518160020160006101000a81548163ffffffff021916908363ffffffff16021790555060608201518160020160046101000a81548163ffffffff021916908363ffffffff16021790555060808201518160020160086101000a81548161ffff021916908361ffff16021790555060a082015181600201600a6101000a81548161ffff021916908361ffff1602179055505050039050336005600083815260200190815260200160002060006101000a81548173ffffffffffffffffffffffffffffffffffffffff021916908373ffffffffffffffffffffffffffffffffffffffff1602179055506117a56001600660003373ffffffffffffffffffffffffffffffffffffffff1673ffffffffffffffffffffffffffffffffffffffff16815260200190815260200160002054611a9f90919063ffffffff16565b600660003373ffffffffffffffffffffffffffffffffffffffff1673ffffffffffffffffffffffffffffffffffffffff168152602001908152602001600020819055507f88f026aacbbecc90c18411df4b1185fd8d9be2470f1962f192bf84a27d0704b78184846040518084815260200180602001838152602001828103825284818151815260200191508051906020019080838360005b8381101561185857808201518184015260208101905061183d565b50505050905090810190601f1680156118855780820380516001836020036101000a031916815260200191505b5094505050505060405180910390a1505050565b60006118b16001600954611a9f90919063ffffffff16565b600981905550814233600954604051602001808481526020018373ffffffffffffffffffffffffffffffffffffffff1673ffffffffffffffffffffffffffffffffffffffff1660601b815260140182815260200193505050506040516020818303038152906040528051906020012060001c8161192a57fe5b069050919050565b60008082840190508361ffff168161ffff16101561194c57fe5b8091505092915050565b60035442018160020160046101000a81548163ffffffff021916908363ffffffff16021790555050565b600073ffffffffffffffffffffffffffffffffffffffff168173ffffffffffffffffffffffffffffffffffffffff1614156119ba57600080fd5b8073ffffffffffffffffffffffffffffffffffffffff166000809054906101000a900473ffffffffffffffffffffffffffffffffffffffff1673ffffffffffffffffffffffffffffffffffffffff167f8be0079c531659141344cd1fd0a4f28419497f9722a3daafe3b4186f6b6457e060405160405180910390a3806000806101000a81548173ffffffffffffffffffffffffffffffffffffffff021916908373ffffffffffffffffffffffffffffffffffffffff16021790555050565b6000428260020160049054906101000a900463ffffffff1663ffffffff1611159050919050565b600080828401905083811015611ab157fe5b8091505092915050565b828054600181600116156101000203166002900490600052602060002090601f016020900481019282601f10611afc57803560ff1916838001178555611b2a565b82800160010185558215611b2a579182015b82811115611b29578235825591602001919060010190611b0e565b5b509050611b379190611bbb565b5090565b828054600181600116156101000203166002900490600052602060002090601f016020900481019282601f10611b7c57805160ff1916838001178555611baa565b82800160010185558215611baa579182015b82811115611ba9578251825591602001919060010190611b8e565b5b509050611bb79190611bbb565b5090565b611bdd91905b80821115611bd9576000816000905550600101611bc1565b5090565b9056fea265627a7a723158205bcb35d8511c9432dd4f18f2383e866a46a93ff3e18e7bbc28d451a1c695115c64736f6c63430005100032",
  "source": "pragma solidity >=0.5.0 <0.6.0;\r\n\r\nimport \"./zombiehelper.sol\";\r\n\r\ncontract ZombieAttack is ZombieHelper {\r\n\r\n    // Variables\r\n    uint randNonce = 0;\r\n    uint attackVictoryProbability = 70;\r\n\r\n    // function for owner to set the attack probability\r\n    function setAttackVictoryProbability(uint _probability) external onlyOwner {\r\n        attackVictoryProbability = _probability;\r\n    }\r\n    \r\n    // Function which represents our source of randomness\r\n    function randMod(uint _modulus) internal returns(uint) {\r\n        randNonce = randNonce.add(1);\r\n        return uint(keccak256(abi.encodePacked(now, msg.sender, randNonce))) % _modulus;\r\n    } \r\n\r\n    // Function to represent a battle when my zombie attacks another one. Higher probability is to win than to lose\r\n    function attack(uint _zombieId, uint _targetId) external onlyOwnerOf(_zombieId) {\r\n        Zombie storage myZombie = zombies[_zombieId];\r\n        Zombie storage enemyZombie = zombies[_targetId];\r\n        uint rand = randMod(100);\r\n        if(rand <= attackVictoryProbability) {\r\n            myZombie.winCount = myZombie.winCount.add(1);\r\n            myZombie.level = myZombie.level.add(1);\r\n            enemyZombie.lossCount = enemyZombie.lossCount.add(1);\r\n            feedAndMultiply(_zombieId, enemyZombie.dna, \"zombie\");\r\n        } else {\r\n            myZombie.lossCount = myZombie.lossCount.add(1);\r\n            enemyZombie.winCount = enemyZombie.winCount.add(1);\r\n            _triggerCooldown(myZombie);\r\n        }\r\n    }\r\n}",
  "sourcePath": "/mnt/c/pr0/crypto-zombies/contracts/zombieattack.sol",
  "compiler": {
    "name": "solc",
    "version": "0.5.16+commit.9c3226ce.Emscripten.clang"
  },
  "schemaVersion": "3.3.4",
  "updatedAt": "2021-04-24T09:28:26.008Z",
  "devdoc": {
    "methods": {
      "isOwner()": {
        "return": "true if `msg.sender` is the owner of the contract."
      },
      "owner()": {
        "return": "the address of the owner."
      },
      "renounceOwnership()": {
        "details": "Allows the current owner to relinquish control of the contract."
      },
      "transferOwnership(address)": {
        "details": "Allows the current owner to transfer control of the contract to a newOwner.",
        "params": {
          "newOwner": "The address to transfer ownership to."
        }
      }
    }
  },
  "userdoc": {
    "methods": {
      "renounceOwnership()": {
        "notice": "Renouncing to ownership will leave the contract without an owner. It will not be possible to call the functions with the `onlyOwner` modifier anymore."
      }
    }
  }
}