{
  "contractName": "ZombieHelper",
  "abi": [
    {
      "anonymous": false,
      "inputs": [
        {
          "indexed": false,
          "internalType": "uint256",
          "name": "zombieId",
          "type": "uint256"
        },
        {
          "indexed": false,
          "internalType": "string",
          "name": "name",
          "type": "string"
        },
        {
          "indexed": false,
          "internalType": "uint256",
          "name": "dna",
          "type": "uint256"
        }
      ],
      "name": "NewZombie",
      "type": "event"
    },
    {
      "anonymous": false,
      "inputs": [
        {
          "indexed": true,
          "internalType": "address",
          "name": "previousOwner",
          "type": "address"
        },
        {
          "indexed": true,
          "internalType": "address",
          "name": "newOwner",
          "type": "address"
        }
      ],
      "name": "OwnershipTransferred",
      "type": "event"
    },
    {
      "constant": false,
      "inputs": [
        {
          "internalType": "string",
          "name": "_name",
          "type": "string"
        }
      ],
      "name": "createRandomZombie",
      "outputs": [],
      "payable": false,
      "stateMutability": "nonpayable",
      "type": "function"
    },
    {
      "constant": false,
      "inputs": [
        {
          "internalType": "uint256",
          "name": "_zombieId",
          "type": "uint256"
        },
        {
          "internalType": "uint256",
          "name": "_kittyId",
          "type": "uint256"
        }
      ],
      "name": "feedOnKitty",
      "outputs": [],
      "payable": false,
      "stateMutability": "nonpayable",
      "type": "function"
    },
    {
      "constant": true,
      "inputs": [],
      "name": "isOwner",
      "outputs": [
        {
          "internalType": "bool",
          "name": "",
          "type": "bool"
        }
      ],
      "payable": false,
      "stateMutability": "view",
      "type": "function"
    },
    {
      "constant": true,
      "inputs": [],
      "name": "owner",
      "outputs": [
        {
          "internalType": "address",
          "name": "",
          "type": "address"
        }
      ],
      "payable": false,
      "stateMutability": "view",
      "type": "function"
    },
    {
      "constant": false,
      "inputs": [],
      "name": "renounceOwnership",
      "outputs": [],
      "payable": false,
      "stateMutability": "nonpayable",
      "type": "function"
    },
    {
      "constant": false,
      "inputs": [
        {
          "internalType": "address",
          "name": "_address",
          "type": "address"
        }
      ],
      "name": "setKittyContractAddress",
      "outputs": [],
      "payable": false,
      "stateMutability": "nonpayable",
      "type": "function"
    },
    {
      "constant": false,
      "inputs": [
        {
          "internalType": "address",
          "name": "newOwner",
          "type": "address"
        }
      ],
      "name": "transferOwnership",
      "outputs": [],
      "payable": false,
      "stateMutability": "nonpayable",
      "type": "function"
    },
    {
      "constant": true,
      "inputs": [
        {
          "internalType": "uint256",
          "name": "",
          "type": "uint256"
        }
      ],
      "name": "zombieToOwner",
      "outputs": [
        {
          "internalType": "address",
          "name": "",
          "type": "address"
        }
      ],
      "payable": false,
      "stateMutability": "view",
      "type": "function"
    },
    {
      "constant": true,
      "inputs": [
        {
          "internalType": "uint256",
          "name": "",
          "type": "uint256"
        }
      ],
      "name": "zombies",
      "outputs": [
        {
          "internalType": "string",
          "name": "name",
          "type": "string"
        },
        {
          "internalType": "uint256",
          "name": "dna",
          "type": "uint256"
        },
        {
          "internalType": "uint32",
          "name": "level",
          "type": "uint32"
        },
        {
          "internalType": "uint32",
          "name": "readyTime",
          "type": "uint32"
        }
      ],
      "payable": false,
      "stateMutability": "view",
      "type": "function"
    },
    {
      "constant": false,
      "inputs": [
        {
          "internalType": "uint256",
          "name": "_zombieId",
          "type": "uint256"
        },
        {
          "internalType": "string",
          "name": "_newName",
          "type": "string"
        }
      ],
      "name": "changeName",
      "outputs": [],
      "payable": false,
      "stateMutability": "nonpayable",
      "type": "function"
    },
    {
      "constant": false,
      "inputs": [
        {
          "internalType": "uint256",
          "name": "_zombieId",
          "type": "uint256"
        },
        {
          "internalType": "uint256",
          "name": "_newDna",
          "type": "uint256"
        }
      ],
      "name": "changeDna",
      "outputs": [],
      "payable": false,
      "stateMutability": "nonpayable",
      "type": "function"
    },
    {
      "constant": true,
      "inputs": [
        {
          "internalType": "address",
          "name": "_owner",
          "type": "address"
        }
      ],
      "name": "getZombiesByOwner",
      "outputs": [
        {
          "internalType": "uint256[]",
          "name": "",
          "type": "uint256[]"
        }
      ],
      "payable": false,
      "stateMutability": "view",
      "type": "function"
    }
  ],
  "bytecode": "0x60806040526010600155600154600a0a60025562015180600355336000806101000a81548173ffffffffffffffffffffffffffffffffffffffff021916908373ffffffffffffffffffffffffffffffffffffffff1602179055506000809054906101000a900473ffffffffffffffffffffffffffffffffffffffff1673ffffffffffffffffffffffffffffffffffffffff16600073ffffffffffffffffffffffffffffffffffffffff167f8be0079c531659141344cd1fd0a4f28419497f9722a3daafe3b4186f6b6457e060405160405180910390a3611445806100e46000396000f3fe608060405234801561001057600080fd5b50600436106100b45760003560e01c8063715018a611610071578063715018a6146103485780637bff0a01146103525780638da5cb5b1461040d5780638f32d59b14610457578063c39cbef114610479578063f2fde38b146104fc576100b4565b806317a7f4cc146100b95780632052465e146100f15780634412e104146101c5578063528b7b8f1461025e5780635f4623f1146102cc5780635faf288014610310575b600080fd5b6100ef600480360360408110156100cf57600080fd5b810190808035906020019092919080359060200190929190505050610540565b005b61011d6004803603602081101561010757600080fd5b81019080803590602001909291905050506106cb565b60405180806020018581526020018463ffffffff1663ffffffff1681526020018363ffffffff1663ffffffff168152602001828103825286818151815260200191508051906020019080838360005b8381101561018757808201518184015260208101905061016c565b50505050905090810190601f1680156101b45780820380516001836020036101000a031916815260200191505b509550505050505060405180910390f35b610207600480360360208110156101db57600080fd5b81019080803573ffffffffffffffffffffffffffffffffffffffff1690602001909291905050506107c0565b6040518080602001828103825283818151815260200191508051906020019060200280838360005b8381101561024a57808201518184015260208101905061022f565b505050509050019250505060405180910390f35b61028a6004803603602081101561027457600080fd5b81019080803590602001909291905050506108ed565b604051808273ffffffffffffffffffffffffffffffffffffffff1673ffffffffffffffffffffffffffffffffffffffff16815260200191505060405180910390f35b61030e600480360360208110156102e257600080fd5b81019080803573ffffffffffffffffffffffffffffffffffffffff169060200190929190505050610920565b005b6103466004803603604081101561032657600080fd5b810190808035906020019092919080359060200190929190505050610975565b005b610350610a4d565b005b61040b6004803603602081101561036857600080fd5b810190808035906020019064010000000081111561038557600080fd5b82018360208201111561039757600080fd5b803590602001918460018302840111640100000000831117156103b957600080fd5b91908080601f016020809104026020016040519081016040528093929190818152602001838380828437600081840152601f19601f820116905080830192505050505050509192919290505050610b1d565b005b610415610b84565b604051808273ffffffffffffffffffffffffffffffffffffffff1673ffffffffffffffffffffffffffffffffffffffff16815260200191505060405180910390f35b61045f610bad565b604051808215151515815260200191505060405180910390f35b6104fa6004803603604081101561048f57600080fd5b8101908080359060200190929190803590602001906401000000008111156104b657600080fd5b8201836020820111156104c857600080fd5b803590602001918460018302840111640100000000831117156104ea57600080fd5b9091929391929390505050610c04565b005b61053e6004803603602081101561051257600080fd5b81019080803573ffffffffffffffffffffffffffffffffffffffff169060200190929190505050610ce8565b005b6000600760009054906101000a900473ffffffffffffffffffffffffffffffffffffffff1673ffffffffffffffffffffffffffffffffffffffff1663e98b7f4d836040518263ffffffff1660e01b8152600401808281526020019150506101406040518083038186803b1580156105b657600080fd5b505afa1580156105ca573d6000803e3d6000fd5b505050506040513d6101408110156105e157600080fd5b8101908080519060200190929190805190602001909291908051906020019092919080519060200190929190805190602001909291908051906020019092919080519060200190929190805190602001909291908051906020019092919080519060200190929190505050909192939495969798509091929394959697509091929394959650909192939495509091929394509091929350909192509091509050809150506106c683826040518060400160405280600581526020017f6b69747479000000000000000000000000000000000000000000000000000000815250610d05565b505050565b600481815481106106d857fe5b9060005260206000209060030201600091509050806000018054600181600116156101000203166002900480601f0160208091040260200160405190810160405280929190818152602001828054600181600116156101000203166002900480156107845780601f1061075957610100808354040283529160200191610784565b820191906000526020600020905b81548152906001019060200180831161076757829003601f168201915b5050505050908060010154908060020160009054906101000a900463ffffffff16908060020160049054906101000a900463ffffffff16905084565b606080600660008473ffffffffffffffffffffffffffffffffffffffff1673ffffffffffffffffffffffffffffffffffffffff168152602001908152602001600020546040519080825280602002602001820160405280156108315781602001602082028038833980820191505090505b509050600080905060008090505b6004805490508110156108e2578473ffffffffffffffffffffffffffffffffffffffff166005600083815260200190815260200160002060009054906101000a900473ffffffffffffffffffffffffffffffffffffffff1673ffffffffffffffffffffffffffffffffffffffff1614156108d557808383815181106108c057fe5b60200260200101818152505081806001019250505b808060010191505061083f565b508192505050919050565b60056020528060005260406000206000915054906101000a900473ffffffffffffffffffffffffffffffffffffffff1681565b610928610bad565b61093157600080fd5b80600760006101000a81548173ffffffffffffffffffffffffffffffffffffffff021916908373ffffffffffffffffffffffffffffffffffffffff16021790555050565b601482816004828154811061098657fe5b906000526020600020906003020160020160009054906101000a900463ffffffff1663ffffffff1610156109b957600080fd5b6005600085815260200190815260200160002060009054906101000a900473ffffffffffffffffffffffffffffffffffffffff1673ffffffffffffffffffffffffffffffffffffffff163373ffffffffffffffffffffffffffffffffffffffff1614610a2457600080fd5b8260048581548110610a3257fe5b90600052602060002090600302016001018190555050505050565b610a55610bad565b610a5e57600080fd5b600073ffffffffffffffffffffffffffffffffffffffff166000809054906101000a900473ffffffffffffffffffffffffffffffffffffffff1673ffffffffffffffffffffffffffffffffffffffff167f8be0079c531659141344cd1fd0a4f28419497f9722a3daafe3b4186f6b6457e060405160405180910390a360008060006101000a81548173ffffffffffffffffffffffffffffffffffffffff021916908373ffffffffffffffffffffffffffffffffffffffff160217905550565b6000600660003373ffffffffffffffffffffffffffffffffffffffff1673ffffffffffffffffffffffffffffffffffffffff1681526020019081526020016000205414610b6957600080fd5b6000610b7482610ee5565b9050610b808282610f73565b5050565b60008060009054906101000a900473ffffffffffffffffffffffffffffffffffffffff16905090565b60008060009054906101000a900473ffffffffffffffffffffffffffffffffffffffff1673ffffffffffffffffffffffffffffffffffffffff163373ffffffffffffffffffffffffffffffffffffffff1614905090565b6002838160048281548110610c1557fe5b906000526020600020906003020160020160009054906101000a900463ffffffff1663ffffffff161015610c4857600080fd5b6005600086815260200190815260200160002060009054906101000a900473ffffffffffffffffffffffffffffffffffffffff1673ffffffffffffffffffffffffffffffffffffffff163373ffffffffffffffffffffffffffffffffffffffff1614610cb357600080fd5b838360048781548110610cc257fe5b90600052602060002090600302016000019190610ce09291906112eb565b505050505050565b610cf0610bad565b610cf957600080fd5b610d02816111a2565b50565b6005600084815260200190815260200160002060009054906101000a900473ffffffffffffffffffffffffffffffffffffffff1673ffffffffffffffffffffffffffffffffffffffff163373ffffffffffffffffffffffffffffffffffffffff1614610d7057600080fd5b600060048481548110610d7f57fe5b90600052602060002090600302019050610d988161129a565b610da157600080fd5b6002548381610dac57fe5b069250600060028483600101540181610dc157fe5b04905060405160200180807f6b69747479000000000000000000000000000000000000000000000000000000815250600501905060405160208183030381529060405280519060200120836040516020018082805190602001908083835b60208310610e425780518252602082019150602081019050602083039250610e1f565b6001836020036101000a038019825116818451168082178552505050505050905001915050604051602081830303815290604052805190602001201415610e9657606360648281610e8f57fe5b0682030190505b610ed56040518060400160405280600681526020017f4e6f4e616d65000000000000000000000000000000000000000000000000000081525082610f73565b610ede826112c1565b5050505050565b600080826040516020018082805190602001908083835b60208310610f1f5780518252602082019150602081019050602083039250610efc565b6001836020036101000a0380198251168184511680821785525050505050509050019150506040516020818303038152906040528051906020012060001c90506002548181610f6a57fe5b06915050919050565b6000600160046040518060800160405280868152602001858152602001600163ffffffff168152602001600354420163ffffffff16815250908060018154018082558091505090600182039060005260206000209060030201600090919290919091506000820151816000019080519060200190610ff292919061136b565b506020820151816001015560408201518160020160006101000a81548163ffffffff021916908363ffffffff16021790555060608201518160020160046101000a81548163ffffffff021916908363ffffffff1602179055505050039050336005600083815260200190815260200160002060006101000a81548173ffffffffffffffffffffffffffffffffffffffff021916908373ffffffffffffffffffffffffffffffffffffffff160217905550600660003373ffffffffffffffffffffffffffffffffffffffff1673ffffffffffffffffffffffffffffffffffffffff168152602001908152602001600020600081548092919060010191905055507f88f026aacbbecc90c18411df4b1185fd8d9be2470f1962f192bf84a27d0704b78184846040518084815260200180602001838152602001828103825284818151815260200191508051906020019080838360005b83811015611161578082015181840152602081019050611146565b50505050905090810190601f16801561118e5780820380516001836020036101000a031916815260200191505b5094505050505060405180910390a1505050565b600073ffffffffffffffffffffffffffffffffffffffff168173ffffffffffffffffffffffffffffffffffffffff1614156111dc57600080fd5b8073ffffffffffffffffffffffffffffffffffffffff166000809054906101000a900473ffffffffffffffffffffffffffffffffffffffff1673ffffffffffffffffffffffffffffffffffffffff167f8be0079c531659141344cd1fd0a4f28419497f9722a3daafe3b4186f6b6457e060405160405180910390a3806000806101000a81548173ffffffffffffffffffffffffffffffffffffffff021916908373ffffffffffffffffffffffffffffffffffffffff16021790555050565b6000428260020160049054906101000a900463ffffffff1663ffffffff1611159050919050565b60035442018160020160046101000a81548163ffffffff021916908363ffffffff16021790555050565b828054600181600116156101000203166002900490600052602060002090601f016020900481019282601f1061132c57803560ff191683800117855561135a565b8280016001018555821561135a579182015b8281111561135957823582559160200191906001019061133e565b5b50905061136791906113eb565b5090565b828054600181600116156101000203166002900490600052602060002090601f016020900481019282601f106113ac57805160ff19168380011785556113da565b828001600101855582156113da579182015b828111156113d95782518255916020019190600101906113be565b5b5090506113e791906113eb565b5090565b61140d91905b808211156114095760008160009055506001016113f1565b5090565b9056fea265627a7a7231582070f3df636cc6df998e891e39386f4b49cfb379b8c1c45b35423dbb361d46d2a164736f6c63430005100032",
  "source": "pragma solidity >=0.5.0 <0.6.0;\r\n\r\nimport \"./zombiefeeding.sol\";\r\n\r\ncontract ZombieHelper is ZombieFeeding {\r\n\r\n    modifier aboveLevel(uint _level, uint _zombieId) {\r\n        require(zombies[_zombieId].level >= _level);\r\n        _;\r\n    }\r\n\r\n    function changeName(uint _zombieId, string calldata _newName) external aboveLevel(2, _zombieId) {\r\n        require(msg.sender == zombieToOwner[_zombieId]);\r\n        zombies[_zombieId].name = _newName;\r\n    }\r\n\r\n    function changeDna(uint _zombieId, uint _newDna) external aboveLevel(20, _zombieId) {\r\n        require(msg.sender == zombieToOwner[_zombieId]);\r\n        zombies[_zombieId].dna = _newDna;\r\n    }\r\n\r\n    function getZombiesByOwner(address _owner) external view returns(uint[] memory) {\r\n        uint[] memory result = new uint[](ownerZombieCount[_owner]);\r\n        uint counter = 0;\r\n        for(uint i = 0; i < zombies.length; i++) {\r\n            if(zombieToOwner[i] == _owner) {\r\n                result[counter] = i;\r\n                counter++;\r\n            }\r\n        }\r\n        return result;\r\n    }\r\n}",
  "sourcePath": "/mnt/c/pr0/crypto-zombies/contracts/zombiehelper.sol",
  "compiler": {
    "name": "solc",
    "version": "0.5.16+commit.9c3226ce.Emscripten.clang"
  },
  "schemaVersion": "3.3.4",
  "updatedAt": "2021-04-05T08:16:30.381Z",
  "devdoc": {
    "methods": {
      "isOwner()": {
        "return": "true if `msg.sender` is the owner of the contract."
      },
      "owner()": {
        "return": "the address of the owner."
      },
      "renounceOwnership()": {
        "details": "Allows the current owner to relinquish control of the contract."
      },
      "transferOwnership(address)": {
        "details": "Allows the current owner to transfer control of the contract to a newOwner.",
        "params": {
          "newOwner": "The address to transfer ownership to."
        }
      }
    }
  },
  "userdoc": {
    "methods": {
      "renounceOwnership()": {
        "notice": "Renouncing to ownership will leave the contract without an owner. It will not be possible to call the functions with the `onlyOwner` modifier anymore."
      }
    }
  }
}